{
  "contractName": "Storage",
  "abi": [
    {
      "inputs": [],
      "stateMutability": "nonpayable",
      "type": "constructor"
    },
    {
      "inputs": [],
      "name": "a",
      "outputs": [
        {
          "internalType": "uint8",
          "name": "",
          "type": "uint8"
        }
      ],
      "stateMutability": "view",
      "type": "function",
      "constant": true
    },
    {
      "inputs": [
        {
          "internalType": "uint256",
          "name": "",
          "type": "uint256"
        }
      ],
      "name": "aa",
      "outputs": [
        {
          "internalType": "uint256",
          "name": "",
          "type": "uint256"
        }
      ],
      "stateMutability": "view",
      "type": "function",
      "constant": true
    },
    {
      "inputs": [],
      "name": "b",
      "outputs": [
        {
          "internalType": "uint16",
          "name": "",
          "type": "uint16"
        }
      ],
      "stateMutability": "view",
      "type": "function",
      "constant": true
    },
    {
      "inputs": [
        {
          "internalType": "address",
          "name": "",
          "type": "address"
        }
      ],
      "name": "bb",
      "outputs": [
        {
          "internalType": "uint256",
          "name": "",
          "type": "uint256"
        }
      ],
      "stateMutability": "view",
      "type": "function",
      "constant": true
    },
    {
      "inputs": [],
      "name": "c",
      "outputs": [
        {
          "internalType": "address",
          "name": "",
          "type": "address"
        }
      ],
      "stateMutability": "view",
      "type": "function",
      "constant": true
    },
    {
      "inputs": [],
      "name": "e",
      "outputs": [
        {
          "internalType": "uint64",
          "name": "",
          "type": "uint64"
        }
      ],
      "stateMutability": "view",
      "type": "function",
      "constant": true
    },
    {
      "inputs": [],
      "name": "f",
      "outputs": [
        {
          "internalType": "uint256",
          "name": "",
          "type": "uint256"
        }
      ],
      "stateMutability": "view",
      "type": "function",
      "constant": true
    },
    {
      "inputs": [],
      "name": "g",
      "outputs": [
        {
          "internalType": "uint8",
          "name": "",
          "type": "uint8"
        }
      ],
      "stateMutability": "view",
      "type": "function",
      "constant": true
    },
    {
      "inputs": [],
      "name": "h",
      "outputs": [
        {
          "internalType": "uint256",
          "name": "",
          "type": "uint256"
        }
      ],
      "stateMutability": "view",
      "type": "function",
      "constant": true
    }
  ],
  "bytecode": "0x60806040526007600260006101000a81548160ff021916908360ff160217905550600a600260016101000a81548161ffff021916908361ffff16021790555073fc64356386d7ab871fd256c26a0b7c8742d94ad9600260036101000a81548173ffffffffffffffffffffffffffffffffffffffff021916908373ffffffffffffffffffffffffffffffffffffffff1602179055506001600260176101000a81548160ff021916908315150217905550600f600260186101000a81548167ffffffffffffffff021916908367ffffffffffffffff16021790555060c86003556028600460006101000a81548160ff021916908360ff16021790555061031560055534801561010b57600080fd5b5060046000806002815260200190815260200160002081905550600a600080600381526020019081526020016000208190555060646001600073fc64356386d7ab871fd256c26a0b7c8742d94ad973ffffffffffffffffffffffffffffffffffffffff1673ffffffffffffffffffffffffffffffffffffffff1681526020019081526020016000208190555061049d806101a66000396000f3fe608060405234801561001057600080fd5b50600436106100935760003560e01c8063b8c9d36511610066578063b8c9d36514610122578063c3da42b814610140578063e1d9bbbd1461015e578063e2179b8e1461018e578063ffae15ba146101ac57610093565b80630dbe671f1461009857806326121ff0146100b65780634df7e3d0146100d45780637323febe146100f2575b600080fd5b6100a06101ca565b6040516100ad91906103b3565b60405180910390f35b6100be6101dd565b6040516100cb919061037d565b60405180910390f35b6100dc6101e3565b6040516100e99190610362565b60405180910390f35b61010c600480360381019061010791906102d3565b6101f7565b604051610119919061037d565b60405180910390f35b61012a61020f565b604051610137919061037d565b60405180910390f35b610148610215565b6040516101559190610347565b60405180910390f35b610178600480360381019061017391906102aa565b61023b565b604051610185919061037d565b60405180910390f35b610196610253565b6040516101a391906103b3565b60405180910390f35b6101b4610266565b6040516101c19190610398565b60405180910390f35b600260009054906101000a900460ff1681565b60035481565b600260019054906101000a900461ffff1681565b60006020528060005260406000206000915090505481565b60055481565b600260039054906101000a900473ffffffffffffffffffffffffffffffffffffffff1681565b60016020528060005260406000206000915090505481565b600460009054906101000a900460ff1681565b600260189054906101000a900467ffffffffffffffff1681565b60008135905061028f81610439565b92915050565b6000813590506102a481610450565b92915050565b6000602082840312156102bc57600080fd5b60006102ca84828501610280565b91505092915050565b6000602082840312156102e557600080fd5b60006102f384828501610295565b91505092915050565b610305816103ce565b82525050565b610314816103e0565b82525050565b6103238161040e565b82525050565b61033281610418565b82525050565b6103418161042c565b82525050565b600060208201905061035c60008301846102fc565b92915050565b6000602082019050610377600083018461030b565b92915050565b6000602082019050610392600083018461031a565b92915050565b60006020820190506103ad6000830184610329565b92915050565b60006020820190506103c86000830184610338565b92915050565b60006103d9826103ee565b9050919050565b600061ffff82169050919050565b600073ffffffffffffffffffffffffffffffffffffffff82169050919050565b6000819050919050565b600067ffffffffffffffff82169050919050565b600060ff82169050919050565b610442816103ce565b811461044d57600080fd5b50565b6104598161040e565b811461046457600080fd5b5056fea26469706673582212207526dbbf729f7e2a06973a51724a1953cfccfa92b64514d506c4400975caf36c64736f6c63430008040033",
  "immutableReferences": {},
  "source": "// SPDX-License-Identifier: MIT\r\npragma solidity >=0.4.22 <0.9.0;\r\n\r\ncontract Storage {\r\n    mapping(uint => uint) public aa; //  slot 0\r\n    mapping(address => uint) public bb; // slot 1\r\n\r\n    uint8 public a = 7; //1 byte\r\n    uint16 public b = 10; //2 bytes\r\n    address public c = 0xFC64356386d7Ab871fd256c26A0b7C8742d94Ad9;\r\n    bool d = true; //1 byte\r\n    uint64 public e = 15; // 8bytes\r\n    // 32 bytes, all values will be stored in slot 2\r\n\r\n    uint256 public f = 200;\r\n    uint8 public g = 40;\r\n    uint256 public h = 789;\r\n\r\n    constructor() {\r\n        aa[2] = 4;\r\n        aa[3] = 10;\r\n\r\n        bb[0xFC64356386d7Ab871fd256c26A0b7C8742d94Ad9] = 100;\r\n    }\r\n}\r\n\r\n// 0x00000000000000000000000000000000000000000000000000000000000000030000000000000000000000000000000000000000000000000000000000000000\r\n\r\n// web3.eth.getStorageAt()\r\n",
  "sourcePath": "C:\\Users\\Yohei Sugiyama\\blockchain\\faucet\\contracts\\Storage.sol",
  "compiler": {
    "name": "solc",
    "version": "0.8.4+commit.c7e474f2.Emscripten.clang"
  },
  "schemaVersion": "3.4.13",
  "updatedAt": "2023-07-01T18:30:40.466Z",
  "networkType": "ethereum",
  "devdoc": {
    "kind": "dev",
    "methods": {},
    "version": 1
  },
  "userdoc": {
    "kind": "user",
    "methods": {},
    "version": 1
  }
}