{
  "contractName": "Test",
  "abi": [
    {
      "inputs": [
        {
          "internalType": "uint256",
          "name": "testNum",
          "type": "uint256"
        }
      ],
      "name": "test",
      "outputs": [
        {
          "internalType": "uint256",
          "name": "",
          "type": "uint256"
        }
      ],
      "stateMutability": "pure",
      "type": "function"
    }
  ],
  "bytecode": "0x608060405234801561001057600080fd5b5061015c806100206000396000f3fe608060405234801561001057600080fd5b506004361061002b5760003560e01c806329e99f0714610030575b600080fd5b61004a600480360381019061004591906100b2565b610060565b60405161005791906100ea565b60405180910390f35b60006004604051505060006040518060600160405280600160ff168152602001600260ff168152602001600360ff16815250905082915050919050565b6000813590506100ac8161010f565b92915050565b6000602082840312156100c457600080fd5b60006100d28482850161009d565b91505092915050565b6100e481610105565b82525050565b60006020820190506100ff60008301846100db565b92915050565b6000819050919050565b61011881610105565b811461012357600080fd5b5056fea26469706673582212207bd468b11eef44ee96dd948f4a14637562381b79da7d6d2f3cce4f69caed43a964736f6c63430008040033",
  "immutableReferences": {},
  "source": "// SPDX-License-Identifier: MIT\r\npragma solidity >=0.4.22 <0.9.0;\r\n\r\ncontract Test {\r\n\r\n    function test(uint testNum) external pure returns (uint) {\r\n\r\n        assembly {\r\n            let _num := 4\r\n            let _fmp :=mload(0x40)\r\n        }\r\n\r\n        uint8[3] memory items = [1,2,3];\r\n\r\n        return testNum;\r\n    }\r\n\r\n} ",
  "sourcePath": "C:\\Users\\Yohei Sugiyama\\blockchain\\faucet\\contracts\\Test.sol",
  "compiler": {
    "name": "solc",
    "version": "0.8.4+commit.c7e474f2.Emscripten.clang"
  },
  "schemaVersion": "3.4.13",
  "updatedAt": "2023-07-01T18:29:44.554Z",
  "devdoc": {
    "kind": "dev",
    "methods": {},
    "version": 1
  },
  "userdoc": {
    "kind": "user",
    "methods": {},
    "version": 1
  }
}